:020000040800F2
:10000000F00D0020D10100088F1F0008311B0008EF
:100010008D1F00084B040008D92A000800000000CA
:100020000000000000000000000000002B24000879
:100030004D04000800000000292400089125000854
:10004000EB010008EB010008EB010008EB010008E0
:10005000EB010008EB010008EB010008EB010008D0
:10006000EB010008EB010008EB010008EB010008C0
:10007000EB010008EB010008EB010008EB010008B0
:10008000EB010008EB010008EB010008EB010008A0
:10009000EB010008EB010008EB010008EB01000890
:1000A000EB010008EB010008EB010008EB01000880
:1000B000EB010008F525000801260008EB01000807
:1000C000EB010008EB010008EB010008EB01000860
:1000D000EB010008CD2A0008EB010008EB01000845
:1000E000EB010008EB010008EB010008EB01000840
:1000F000EB010008EB010008EB010008EB01000830
:10010000EB010008EB010008EB010008EB0100081F
:10011000EB010008EB0100080D260008EB010008C8
:10012000EB010008EB010008EB010008EB010008FF
:1001300000F002F800F03CF80AA090E8000C8244BD
:100140008344AAF10107DA4501D100F031F8AFF29A
:10015000090EBAE80F0013F0010F18BFFB1A43F0A5
:10016000010318470458000024580000103A24BF27
:1001700078C878C1FAD8520724BF30C830C144BF0C
:1001800004680C607047000000230024002500264E
:10019000103A28BF78C1FBD8520728BF30C148BFEA
:1001A0000B607047002070471FB51FBD10B510BD14
:1001B00000F016F91146FFF7F7FF02F02FFD00F0EF
:1001C00034F903B4FFF7F2FF03BC00F037F9000085
:1001D0000948804709480047FEE7FEE7FEE7FEE7DB
:1001E000FEE7FEE7FEE7FEE7FEE7FEE70448054917
:1001F000054A064B70470000F3250008310100084E
:10020000F0070020F00D0020F0090020F009002088
:100210000FB41CB5074B06AA7B44694600900598AD
:1002200000F0C1F80020694600F0D0F81CBC5DF871
:1002300014FB0000B10100002DE9F0474FF0000A67
:1002400089460446C0F820A02046E1688847002877
:1002500076D0252806D0D4E901219047206A401C99
:100260002062F1E7E168204600258847C4F81CA019
:1002700006460027C4F818A02A2E09D0304602F0FE
:100280003CFC38B304EB8708303EC8F8186019E02E
:1002900059F8041B204604EB87029161E168884706
:1002A000012F064618D1E069002820DA25F0200544
:1002B0001DE0D8F8180000EB800006EB4000303855
:1002C000C8F818002046E1688847064602F015FC89
:1002D0000028EED1012F0AD02E2E08D12046E16849
:1002E00088477F1C0646022F45F02005C4DBA06925
:1002F000002803DA404245F00105A061E80701D07B
:1003000025F01005B6B1A6F14100192802D8203613
:1003100045F400654A463146204625604D46FFF7C4
:1003200041FF58B1012806D0ED1D25F0070000F16E
:10033000080989E704E005F1040985E730468AE702
:10034000206ABDE8F0874FF0000200B513469446DE
:100350009646203922BFA0E80C50A0E80C50B1F11D
:100360002001BFF4F7AF090728BFA0E80C5048BF31
:100370000CC05DF804EB890028BF40F8042B08BFCF
:10038000704748BF20F8022B11F0804F18BF00F8CB
:10039000012B7047704770477047000001694A1C85
:1003A00002610878704700B58FB0CDE901310021B6
:1003B000059105497944CDE9031011466846FFF7D8
:1003C0003BFF0FB000BD0000E5FFFFFF0A6802F829
:1003D000010B0A607047000000487047900700203A
:1003E0007546FFF7F9FFAE4605006946534620F013
:1003F0000700854618B020B5FFF7F8FEBDE820409D
:100400004FF000064FF000074FF000084FF0000BD0
:1004100021F00701AC46ACE8C009ACE8C009ACE883
:10042000C009ACE8C0098D46704710B50446AFF36B
:1004300000802046BDE81040FFF7C3BE01491820E8
:10044000ABBEFEE7260002007047FEE770470000E3
:1004500003480068406A034A002100B211607047F7
:10046000280600202404004003480068406A034A2C
:10047000002100B21160704770060020240800407F
:1004800072B6FEE710B590F821100022022905D0BF
:100490000421816380F82020012010BD01680B68D1
:1004A00023F00E030B6001680B6823F001030B605F
:1004B00090F84030C46B012101FA03F3636080F8C7
:1004C000211080F82020104610BD00002DE9F05FBB
:1004D00090F821100024022903D004218163012413
:1004E00085E001680A6822F00E020A6001680A6865
:1004F00022F001020A603F4E3E4FB215DFF8F4C011
:10050000DFF8F090DFF8ECA0DFF8E8B0DFF8E4E027
:100510000168783F13011502ACF1640CA9F1500990
:10052000AAF13C0AABF1280BAEF1140E4FF480187F
:10053000B14227D9B9420ED0614512D049451DD0EC
:10054000514518D0594518D0714501D1424615E0A2
:10055000294EB14201D1012210E0274E1436B1429A
:1005600001D110220AE0244E2836B14206D0224A98
:100570003C32914201D11A4600E02A461E49091F29
:100580000A602BE0B94213D0614517D0494522D00B
:1005900051451DD059451DD0714501D142461AE043
:1005A000B14202D14FF0807215E0134EB14201D139
:1005B000012210E0104E1436B14201D110220AE09F
:1005C0000D4E2836B14206D00B4A3C32914201D141
:1005D0001A4600E02A46074980394A60012180F81E
:1005E0002110002180F82010416B01B1884720467E
:1005F000BDE8F09F800002400804024070B5044648
:1006000000F010F90546601C02D00448007804444C
:1006100000F008F9401BA042FAD370BD2000002072
:100620002DE9F84FDFF8C8910024A9F1040B234607
:100630000F2709F1040AABF1040ED1E00125A54012
:1006400006EA0502AA4276D1DFF8A8C14E68A6EBF9
:100650000C0866452BD00DDC032E34D005DC36B3F8
:10066000012E19D0022E2FD11BE0112E16D0122EE2
:100670002AD119E0B8F5881F19D006DCB8F5803FFB
:1006800015D0B8F5801F1FD111E0B8F5001F0ED0AE
:10069000B8F5041F18D10AE0CB6815E0CB681B1D24
:1006A00012E0CB6808330FE0CB680C330CE08B68AA
:1006B0002BB1012B4FF0080303D0456104E0042364
:1006C00002E0056100E00023FF2A01D8064601E0B0
:1006D00000F104064FEA840501D9A5F12005D6F8FA
:1006E000008007FA05FC28EA0C0803FA05F548EA39
:1006F0000508C6F800804D68ED0070D53E4DAE6926
:1007000046F00106AE61AD6924F0030605F001056F
:1007100000953A4D06EB050CDCF80850A607360F9D
:1007200007FA06F825EA0805DFF8D480404503D12A
:100730004FF0000825E052E0DFF8C880404502D1C4
:100740004FF001081DE0DFF8C080404502D14FF0B6
:10075000020816E0DFF8B480404502D14FF00308EC
:100760000FE0DFF8AC80404502D14FF0040808E00C
:10077000DFF8A080404502D14FF0050801E04FF0BE
:10078000060808FA06F848EA0508CCF808804D681B
:10079000D9F80060ED024D4601D5164300E09643BE
:1007A0002E604D68DAF80060AD02554601D516435B
:1007B00000E096432E604D68DBF80060AD035D46B7
:1007C00001D5164300E096432E604D68DEF80060C8
:1007D000ED03754601D5164300E096432E60641C78
:1007E0000A681646E2407FF429AFBDE8F88F0000A2
:1007F00008040140000011100010024000000140F8
:1008000000080140000C01400010014000140140AC
:1008100000180140001C01400AB101617047090441
:10082000FBE70000014880687047000020000020BE
:1008300002488168027811448160704720000020DE
:10084000074810B5016841F010010160032000F075
:1008500075F80F2000F006F800F024F8002010BD15
:100860000020024070B50D4D04464FF47A7128788F
:10087000B1FBF0F00A490968B1FBF0F000F0DCFAD6
:1008800048B9102C07D200222146501E00F036F83D
:1008900000206C6070BD012070BD000020000020B1
:1008A0002C0000200C4808B5816941F001018161EC
:1008B000816901F001010091C16941F08051C1617C
:1008C000C06900F0805000900448416821F0E06168
:1008D00041F00071416008BD00100240000001407D
:1008E000002809DB00F01F0201219140400980002F
:1008F00000F1E020C0F8001170470000F0B40E4B8A
:100900001B680C46C3F30223C3F10705042D00D96D
:100910000425191D072901D2002300E0DB1E012652
:1009200006FA05F1491E214099409E40761E164068
:100930003143F0BC02F0D1B80CED00E0064900F004
:10094000070208684FF6FF03184040EA0220034AF6
:1009500010430860704700000CED00E00000FA054D
:100960002DE9F0470F46050061D0434E306800F096
:100970000700B84209D2306820F0070038433060E1
:10098000306800F00700B84251D128683B4C81071D
:1009900012D5400703D5606840F4E06060602878B5
:1009A000000703D5606840F4605060606068A96823
:1009B00020F0F000084360602878C00728D06868FD
:1009C000012810D02168022810D0890700292EDACA
:1009D000616821F0030101436160FFF723FF804656
:1009E00041F288390DE021688903EFE78901EDE7DD
:1009F000FFF718FFA0EB0801494502D90320BDE825
:100A0000F0876068696800F00C00B0EB810FEFD1EF
:100A1000306800F00700B8420BD9306820F00700BA
:100A200038433060306800F00700B84201D0012040
:100A3000E5E72878400705D56068E96820F4E060BC
:100A4000084360602878000706D56068296920F4AB
:100A5000605040EAC100606000F038F86168084A00
:100A6000C1F30311515CC84006490860064800689C
:100A7000FFF7F8FE0020C2E700200240001002400D
:100A8000505900082C00002024000020044805498B
:100A900000684968044AC1F30221515CC8407047AC
:100AA0002C0000200010024060590008044805494D
:100AB00000684968044AC1F3C221515CC8407047CC
:100AC0002C00002000100240605900080E4A5168B6
:100AD0000E4801F00C03042B11D0082B0FD10C4849
:100AE000C1F38343C903C05C0AD55168084AC1F306
:100AF0004041921E515C054A5043B0FBF1F07047F3
:100B000004494843704700000010024000127A0078
:100B10004059000800093D002DE9F84F040070D04D
:100B20002078C04DC00749D06868C0F38100012813
:100B300007D06868C0F38100022809D16868C00343
:100B400006D52868800339D560680028E7D035E0ED
:100B50006068B0F5803F0BD010B1B0F5A02F11D078
:100B6000286820F480302860286820F4802002E083
:100B7000286840F480302860606890B1FFF752FE2A
:100B800006460AE0286840F480202860F0E700BFAD
:100B9000FFF748FE801B642873D828688003F7D5C8
:100BA0000CE0FFF73FFE064605E000BFFFF73AFE08
:100BB000801B6428F0D828688003F7D420789A4EE8
:100BC00080074FF001094FF0000839D5686810F030
:100BD0000C0F07D06868C0F38100022809D168684B
:100BE000C00306D42868800714D52069012808D1DD
:100BF00010E02069B0B1C6F80090FFF713FE074679
:100C000005E00AE1FFF70EFEC01B0228C4D82868E1
:100C10008007F7D52868616920F0F80040EAC10034
:100C200028600DE0C6F80080FFF7FCFD074604E0F1
:100C3000FFF7F8FDC01B022823D828688007F7D4E7
:100C4000207800072CD57948A169D9B1C0F8009067
:100C5000FFF7E8FD074604E0FFF7E4FDC01B0228AC
:100C60000FD8686A8007F7D571484FF4FA510068C9
:100C7000B0FBF1F0009000BF0098411E0091FAD245
:100C80000EE080E0C0F80080FFF7CCFD074604E0EE
:100C9000FFF7C8FDC01B022875D8686A8007F7D423
:100CA0002078400760D5E8690027C00008D4E869CB
:100CB00040F08050E861E869012700F08050009022
:100CC0005C480168C90513D40168834641F480710A
:100CD0000160FFF7A7FD824606E000BFFFF7A2FD17
:100CE000A0EB0A0064284ED8DBF80000C005F5D55B
:100CF000E06801280AD008B1052813D0286A20F03E
:100D000001002862286A20F0040002E0286A40F00E
:100D100001002862E06841F2883B98B1FFF782FD4C
:100D200082460BE0286A40F004002862EEE700BF2C
:100D3000FFF778FDA0EB0A0159455AD8286A8007C9
:100D4000F6D50CE0FFF76EFD824605E0FFF76AFD81
:100D5000A0EB0A0159454CD8286A8007F6D41FB188
:100D6000E86920F08050E861E06988B36968C1F300
:100D70008101022944D00228C6F8608004D0FFF720
:100D800051FD044638E034E0FFF74CFD074604E02F
:100D9000FFF748FDC01B02282BD828688001F7D434
:100DA000206AB0F5803F05D16868A16820F4003062
:100DB00008436860D4E908010843696821F47411A4
:100DC00008436860C6F86090FFF72CFD044606E013
:100DD00025E000BFFFF726FD001B022809D8286880
:100DE0008001F7D51BE000BFFFF71CFD001B0228A8
:100DF00002D90320BDE8F88F28688001F4D40EE002
:100E00000128F7D06868226A00F48031914204D149
:100E1000616A00F47010884201D00120EAE70020E6
:100E2000E8E7000000100240000042428004424215
:100E30002C0000200070004010B5401EB0F1807FF3
:100E400001D3012010BD4FF0E02460610F21601735
:100E500001F043FE0020A06107202061002010BDAA
:100E60007047704710B590F83C20012A22D001222B
:100E700080F83C20CA688C6822F4407222434C6897
:100E800022F4806222430C6822F4006222430C693F
:100E900022F4805222434C6922F400522243C96951
:100EA000002322F480420A4301684A6480F83C30FF
:100EB000002010BD022010BD70B590F83C20012A22
:100EC0002CD0012480F83C40022280F83D200368A9
:100ED0005A689D6822F070060A6832435A60104BC7
:100EE00002689A420ED00F4B9A420BD0B2F1804F5B
:100EF00008D00D4B9A4205D00C4B9A4202D00C4BB5
:100F00009A4204D1496825F080031943916080F822
:100F10003D40002180F83C10084670BD022070BDA5
:100F2000002C014000340140000400400008004053
:100F3000000C004010B5040003D094F83D0010B13F
:100F400007E0012010BD002084F83C00204600F09E
:100F50001FF8022084F83D00211D206801F05CFB91
:100F6000012084F8460084F83E0084F83F0084F8AD
:100F7000400084F8410084F8420084F8430084F87B
:100F8000440084F8450084F83D00002010BD0000B6
:100F900008B5114A01681148914211D1C16941F067
:100FA0001001C161C069002200F0100000901146DC
:100FB0003620FFF7A3FCBDE808403620FFF790BCC1
:100FC000074A914207D1C16941F02001C161C0695E
:100FD00000F02000009008BD00100040001002400A
:100FE0000014004090F83D10012901D00120704705
:100FF000022180F83D1000680E4988420ED00E494B
:1010000088420BD0B0F1804F08D00C49884205D0FF
:101010000B49884202D00B49884204D1816801F013
:101020000701062903D0016841F001010160002099
:1010300070470000002C01400034014000040040D3
:1010400000080040000C004090F83D10012901D03C
:1010500001207047022180F83D100168CA6842F003
:101060000102CA6000680E4988420ED00D498842CC
:101070000BD0B0F1804F08D00B49884205D00B4906
:10108000884202D00A49884204D1816801F00701F0
:10109000062903D0016841F001010160002070477A
:1010A000002C0140003401400004004000080040D2
:1010B000000C00402DE9F0410D46040003D094F8E7
:1010C0003D0018B108E00120BDE8F081002084F85F
:1010D0003C00204600F040F8022084F83D002068E3
:1010E000816844F2070291438160211D206801F06C
:1010F00093FA226890689169166A2B68AF69034376
:1011000040F20330814341EA0721A868EF690843B0
:101110004FF6FC418843E96840EA0720014328690B
:101120002F6A000140EA0730084369686D6926F0BC
:10113000220646EA0515294393602268906154F817
:10114000460B0162012004F81F09E0752076E07665
:101150002077A0750020B7E700B585B00021009189
:10116000019102910391264A0168264891421CD1BF
:10117000C16941F00201C161C16901F0020104913C
:10118000816941F0040181618069694600F00400D1
:101190000490C02000901C48FFF742FA002211463C
:1011A0001D20FFF7ABFB1D2026E0184A914225D1F8
:1011B000C16941F00401C161C16901F004010491F8
:1011C000816941F0200181618069694600F0200059
:1011D00004904FF4405000900D48FFF721FA0D485D
:1011E000416841F0E06141F48051416000221146C4
:1011F0001E20FFF783FB1E20FFF772FB05B000BD2A
:1012000000040040001002400008014000080040B7
:10121000001401400000014070B590F83E600446A3
:1012200090F83F5090F8423090F84320022021B1CE
:1012300004290ED0012E1BD114E0012E18D1012B50
:1012400016D184F83E0084F8420001220021206873
:1012500020E0012D0CD1012A0AD184F83F0084F846
:10126000430014E0012D03D1012B01D1012A01D04B
:10127000012070BD84F83E0084F83F0084F84200ED
:1012800084F8430001220021206801F00BFA0122BA
:101290000421206801F006FA2068016841F001018C
:1012A0000160002070BD704770B504460068016998
:1012B0004FF00005C943890715D4C168C9438907A0
:1012C00011D4E91E01610120207720688069800720
:1012D000204602D0FFF7E7FF04E000F0DFF82046E9
:1012E00000F08EF9257720680169C943490717D4B2
:1012F000C168C943490713D46FF00401016102209A
:1013000020772068806910F4407F204602D0FFF7E4
:10131000CAFF04E000F0C2F8204600F071F925771A
:1013200020680169C943090716D4C168C943090780
:1013300012D46FF008010161042020772068C06991
:101340008007204602D0FFF7AEFF04E000F0A6F8C9
:10135000204600F055F9257720680169C943C90680
:1013600017D4C168C943C90613D46FF010010161D5
:10137000082020772068C06910F4407F204602D002
:10138000FFF791FF04E000F089F8204600F038F9FB
:10139000257720680169C943C90708D1C168C943D5
:1013A000C90704D1891E0161204600F085F9206833
:1013B0000169C943090609D4C168C943090605D4AE
:1013C0006FF0800101612046FFF74AFD2068016946
:1013D000C943490609D4C168C943490605D46FF019
:1013E00040010161204600F07BF920680169C94392
:1013F00089060BD4C168C943890607D46FF0200160
:1014000001612046BDE87040FFF72BBD70BD0000B4
:1014100000B585B0002100910191029103911A4B12
:1014200002681A4802219A421BD1826942F04002A6
:1014300082618069039100F0400004904FF4D44031
:10144000CDE9000169461248FFF7EAF81148416802
:1014500021F0C00141F0E06141F0C001416005B000
:1014600000BDB2F1804FFAD1826942F0040282617C
:101470008069009100F004000191CDE903106946F4
:101480000548FFF7CDF8EAE7002C014000100240C4
:10149000001801400000014000080140704770B58D
:1014A000044690F83C0000260D4601280FD001208C
:1014B00084F83C006AB1042A1DD0082A2FD00C2AD7
:1014C0003FD00126002084F83C00304670BD022049
:1014D00070BD206801F0F4F82068816941F00801CE
:1014E00081612068816921F004018161206881693E
:1014F0002A69114311E0206801F012F9206881691E
:1015000041F4006181612068816921F48061816119
:10151000206881692A6941EA02218161D2E7206855
:1015200001F034F92068C16941F00801C161206807
:10153000C16921F00401C1612068C1692A691143B0
:1015400011E0206801F056F92068C16941F400619A
:10155000C1612068C16921F48061C1612068C169ED
:101560002A6941EA0221C161ACE710B5040003D049
:1015700094F83D0010B107E0012010BD002084F870
:101580003C00204600F01EF8022084F83D00211D9A
:10159000206801F041F8012084F8460084F83E00FC
:1015A00084F83F0084F8400084F8410084F8420049
:1015B00084F8430084F8440084F8450084F83D0032
:1015C000002010BD08B50C4A01680C48914207D1B3
:1015D000816941F400618161806900F4006009E083
:1015E000B1F1804F07D1C16941F00101C161C0690A
:1015F00000F00100009008BD002C014000100240E6
:101600007047000010B50446022249B104290ED0EB
:10161000082913D094F84100012816D0012010BDEC
:1016200094F83E000128F9D184F83E200FE094F8A8
:101630003F000128F2D184F83F2008E094F84000F0
:101640000128EBD184F8402001E084F841200122F8
:10165000206801F027F813492068134A884201D016
:10166000904203D1436C43F40043436420688842B2
:101670000DD090420BD0B0F1804F08D00B4988427A
:1016800005D00B49884202D00A49884204D18168BA
:1016900001F00701062903D0016841F00101016052
:1016A000002010BD002C0140003401400004004027
:1016B00000080040000C004010B500680649884250
:1016C00009D106498888401C888001F04DFABDE8A0
:1016D000104001F06DBA10BD001000400000002065
:1016E0007047704770470000F8B501680446086805
:1016F000CA684B6910F00F0F4FF0000559D003F086
:10170000010602F49077374365D0C10705D0D105B3
:1017100003D5616C41F001016164410705D5D9072A
:1017200003D0616C41F002016164810705D5D907DE
:1017300003D0616C41F004016164010707D502F038
:101740002001314303D0616C41F008016164616C98
:1017500000293AD0800604D5900602D5204601F033
:10176000A0F820684069616CC0F38010090700D4BC
:1017700060B3204601F06EF820684069400621D52C
:101780002068143050E8001F21F0400140E80012AA
:10179000002AF5D1E06BA8B16D494163E06BFEF71B
:1017A00095FE002811D0E06B416B01B0BDE8F04020
:1017B000084783060FD593060DD52046BDE8F840AF
:1017C00001F06FB82046FFF78DFFF8BD2046FFF708
:1017D00089FF6564F8BD266B2023012E7CD1C606E7
:1017E0007AD5D60678D508684868009048694FF0E1
:1017F0000206400640D5E16B086840680004000C12
:10180000E8D0A28D8242E5D9E085886920282DD0D4
:1018100020680C3050E8001F21F4807140E800126D
:10182000002AF5D12068143050E8001F21F0010192
:1018300040E80012002AF5D12068143050E8001F5B
:1018400021F0400140E80012002AF5D184F842302E
:10185000256320680C3050E8001F21F0100140E89B
:101860000012002AF5D1E06BFEF70CFE6663A08D36
:10187000E18D401A81B22AE0A08DE18D401A81B23B
:10188000E08D0028A6D00029A4D022680C3252E8AE
:10189000000F20F4907042E80007002FF5D1206877
:1018A000143050E8002F22F0010240E80027002FFA
:1018B000F5D184F84230256320680C3050E8002FC1
:1018C00022F0100240E80023002BF5D16663204689
:1018D000FFF707FFF8BDFFE705062BD5150629D54D
:1018E00094F841002128F5D1A068B0F5805F01D1BE
:1018F0002069B0B1206A411C2162216800784860EB
:10190000E08C401E0004000CE084E3D12068C16834
:1019100021F08001C1602068C16841F04001C160D0
:10192000D8E7206A0088C0F308004860206A801C5D
:101930002062E5E74006CDD55006CBD5CA682046E3
:1019400022F04002CA6084F8413000F0F0F8C1E7AC
:101950004528000870B5040004D094F84100002523
:1019600010B106E0012070BD84F84050204600F020
:1019700023F8242084F841002068C16821F4005134
:10198000C160204600F0EEFF2068016921F490411B
:1019900001612068416921F02A0141612068C16824
:1019A00041F40051C1606564202084F8410084F84E
:1019B00042006563002070BD30B585B000240094FE
:1019C0000194029403940068184988422CD1184865
:1019D000816941F480418161816901F48041049110
:1019E000816941F0040181618069124D00F00400B9
:1019F00004904FF4007000900220019003200390A7
:101A000069462846FEF70CFE2815CDE90004694614
:101A100028460294FEF704FE002211462520FEF718
:101A20006DFF2520FEF75CFF05B030BD003801409A
:101A3000001002400008014090F84230202B01D0F5
:101A40000220704721B11AB10023036300F0E6BF02
:101A50000120704730B40B4A016891420FD10A4A05
:101A60000021116009490122094C8A704A780B78DB
:101A7000A354521C4A7030BC0122FFF7DDBF30BCBA
:101A8000704700000038014024140040000000208E
:101A9000840500202DE9F843044690F841001F46D4
:101AA00016460D46202802D00220BDE8F8837DB1FD
:101AB00076B100206064212084F84100FEF7B2FE78
:101AC000A6848046E684A068B0F5805F02D003E07B
:101AD0000120EAE7206910B12E4600250EE000261D
:101AE0000CE08021204600F0B4FFA0B9AEB116F89A
:101AF000010B21684860E08C401EE084E08C434686
:101B00004FF0000200970028EBD14FF04001204633
:101B100000F09FFF30B10320C7E735F8020BC0F398
:101B20000800E6E7202084F841000020BDE7704768
:101B3000FEE7000070B501220E4D14032146284631
:101B4000FEF76AFE0122960331462846FEF764FE40
:101B500000F048F8002221462846FEF75DFE00F01E
:101B600041F8002231462846FEF756FEBDE8704097
:101B700000F038B8001C014070B50B4D4FF4805494
:101B8000002221462846FEF747FE012291032846FF
:101B9000FEF742FE00F026F821462846BDE87040D8
:101BA0000122FEF739BE0000001C014070B50C4C4C
:101BB000012211032046FEF72FFE00F013F8012248
:101BC000950329462046FEF727FE00F00BF8002279
:101BD00029462046FEF720FEBDE8704000F002B81E
:101BE000001C01400320401EC0B2FCD27047000020
:101BF0002DE9F04385B00024294800940194029413
:101C00000394816941F004018161816901F004015B
:101C10000491816941F080018161816901F0800155
:101C20000491816941F040018161816901F04001C5
:101C30000491816941F020018161816901F02001F5
:101C40000491816941F0080181618069DFF8548065
:101C500000F008004FF4A0450490002229464046B9
:101C6000FEF7DAFDDFF840904FF480770022394626
:101C70004846FEF7D1FD0095022601250396CDE9E1
:101C8000015469464046FEF7CBFC00970396CDE928
:101C9000015469464846FEF7C3FC05B0BDE8F08331
:101CA00000100240001C0140000C014010B592B031
:101CB00000240F941C2168461094FEF744FB202159
:101CC00007A8FEF740FB2C482A49016041F61F4156
:101CD000C0E901146321C0E9031444618461FFF782
:101CE00044FC08B1FEF7CCFB0F940FA922481094D6
:101CF000FFF7E2F808B1FEF7C3FB6020CDE900046E
:101D00000294039404940594002269461A480694A8
:101D1000FFF7C5FB08B1FEF7B3FB0422694616487E
:101D2000FFF7BDFB08B1FEF7ABFB0822694612487E
:101D3000FFF7B5FB08B1FEF7A3FB0C2269460E487E
:101D4000FFF7ADFB08B1FEF79BFB079408940994DD
:101D50004FF400500A94CDE90B4007A906480E94B1
:101D6000FFF780F808B1FEF78BFB0348FFF750FB45
:101D700012B010BD002C01409805002010B58AB0AB
:101D8000002407941C2168460894FEF7DCFA1648E4
:101D90004FF0804101604721C0E9011444F61F6102
:101DA000C0E903148461FFF7E0FB08B1FEF768FBAC
:101DB000079407A90C480894FFF77EF808B1FEF7CE
:101DC0005FFB6020CDE900040294042269460648C6
:101DD0000494FFF764FB08B1FEF752FB0248FFF7DB
:101DE00017FB0AB010BD0000E005002010B58CB054
:101DF00024216846FEF7A7FA0024164809941449DE
:101E00000A94C0E900144FF6FF71C0E90241046171
:101E100084610320CDE900040120CDE9020404948B
:101E2000CDE90540079469460A480894FFF742F94E
:101E300008B1FEF725FB099409A906480A94FFF7A3
:101E40003BF8002801D0FEF71BFB0CB010BD0000D2
:101E5000000400402806002010B58CB024216846FC
:101E6000FEF771FA00241648099414490A94C0E94F
:101E700000144FF6FF71C0E9024104618461032040
:101E8000CDE900040120CDE902040494CDE9054028
:101E9000079469460A480894FFF70CF908B1FEF761
:101EA000EFFA099409A906480A94FFF705F80028F3
:101EB00001D0FEF7E5FA0CB010BD000000080040AC
:101EC000700600201CB500240F4800940D490194B1
:101ED000016041F61F41C0E9011440F2E73184611D
:101EE000C160FFF727F808B1FEF7CAFA0094694607
:101EF00005480194FEF7E0FF002801D0FEF7C0FA84
:101F00001CBD000000100040B80600201CB50024D5
:101F10000F4800940D49019401604FF4E151C0E96C
:101F200001144FF6FF718461C160FFF703F808B137
:101F3000FEF7A6FA0094694605480194FEF7BCFF37
:101F4000002801D0FEF79CFA1CBD000000140040E0
:101F5000000700200C4810B50A4901604FF41651E3
:101F60004160002181600C22C160C0E904128161DE
:101F7000C161FFF7EFFC002803D0BDE81040FEF779
:101F80007FBA10BD0038014048070020FEE7FEE799
:101F900030B40021084B0A465FF0000003EBC00498
:101FA000401CC0B262548028F8D3491CC9B2082929
:101FB000F2D330BC00F0ACB83000002010B558B1FE
:101FC000012810D10021C02000F066F90021A020D6
:101FD000BDE8104000F060B90021C82000F05CF9B5
:101FE0000021A120F4E710BD30B5CC0801F00703B3
:101FF00001259D40EBB2064D05EBC005C808285CE5
:102000000AB1184302E063EA0000C043285530BD1E
:102010003000002010B53D4C002204212046FEF780
:10202000FBFBC820FEF7EAFA012204212046FEF756
:10203000F3FB0021AE2000F02FF90021084600F04C
:102040002BF90021102000F027F90021402000F09A
:1020500023F90021812000F01FF90021CF2000F09A
:102060001BF90021A12000F017F90021C82000F081
:1020700013F90021A62000F00FF90021A82000F09C
:102080000BF900213F2000F007F90021D32000F0D8
:1020900003F90021084600F0FFF80021D52000F0E8
:1020A000FBF80021802000F0F7F80021D92000F093
:1020B000F3F80021F12000F0EFF80021DA2000F021
:1020C000EBF80021122000F0E7F80021DB2000F0FF
:1020D000E3F80021302000F0DFF80021202000F09C
:1020E000DBF80021022000F0D7F800218D2000F05D
:1020F000D3F80021142000F0CFF8FFF749FF0021AA
:10210000BDE81040AF2000F0C7B800000008014053
:1021100070B5184E002400BF04F1B000C0B2002119
:1021200000F0BAF80021084600F0B6F800211020AF
:1021300000F0B2F8FFF7FEFC782000F077F9FFF727
:1021400035FD402000F072F9FFF730FD5FF000052B
:1021500006EBC500005D00F069F9FFF727FD6D1C77
:10216000EDB2802DF4D3FFF707FD641CE4B2082C18
:10217000D2D370BD300000202DE9FC4F1C460E4626
:1021800082468B460190082B0DD0600700D00120BD
:1021900000EBD40061084843C0B28146203AD0B277
:1021A000009000204BE00620F7E7082C13D00C2C01
:1021B00018D0102C1BD0182C44D10098234900EBC8
:1021C000C00000BF01EB8001002711F80850E807AC
:1021D00012D00B9A13E000981D4900EB400001EB70
:1021E0004001F1E700981B4900EB4000EAE71A497B
:1021F000009801EB0011E7E70B9828B30022314665
:102200005046FFF7F1FE761C7F1C6D08FFB2F6B258
:10221000082FDCD30AF1010000F0FF0A082C0AD0D5
:102220000199AAEB0100B0EB540F04D10BF10800A7
:102230008A4600F0FF0B08F101005E46C0B28046FE
:102240004845B2D3BDE8FC8F0122D8E7BA47000861
:102250002E3B0008563D0008CA4100082DE9F84110
:102260001E46154688460446079F0BE03346414606
:1022700020460097FFF780FF082E0AD004EB560097
:10228000C4B26D1C2A78A2F120005E28EED9BDE808
:10229000F881A41DE4B2F4E770B50C460546FFF7DB
:1022A00049FC782000F0C2F8FFF780FC0CB1402018
:1022B00000E0002000F0BAF8FFF778FC284600F0B4
:1022C000B5F8FFF773FCBDE87040FFF755BC2DE98A
:1022D000F0470B4604461146184601F043FBE06008
:1022E000256906460121284601F0E3FB314601F04D
:1022F0002EFB616901F070F8A16801F02BFA8146AC
:102300002946304601F02EFB216801F023FA804671
:102310003046616801F01EFA0746A0614946404612
:1023200001F05AF8394601F057F80146206A01F0E9
:1023300053F82062C4E90465BDE8F0872DE9F04157
:102340000B46C568044605611146184601F00AFBB4
:1023500006462946E06001F005FBA16801F0FAF9A4
:1023600005463046216801F0F5F9074630466168B8
:1023700001F0F0F9A16901F02FF8A061E16901F025
:10238000B5FAE06908D380F00040A16901F0AEFA27
:1023900003D2E06980F00040A0612946384601F090
:1023A0001BF8A16901F018F82062616A01F09EFA39
:1023B000606A0BD380F00040216A01F097FA02D3E3
:1023C000206ABDE8F081606A80F000402062F8E792
:1023D00010B514460A4601460548FFF7AFFF01460F
:1023E00022460348BDE810402838FFF770BF0000C0
:1023F000D804002010B514460A4601460548FFF7E8
:102400009DFF014622460348BDE810402838FFF7EB
:102410005EBF00002805002030B5DDE903454562B8
:10242000C46180E80E0030BD704770472DE9F0416F
:10243000124F054600244FF480584FF4804628067A
:1024400001D5012200E0002241463846FEF7E4F9BA
:10245000FFF7C8FB012231463846FEF7DDF9FFF7EA
:10246000C1FB002231463846FEF7D6F96806641CE7
:10247000050EE4B2082CE2D3BDE8F081001C014057
:102480002DE9F0410025404E404C174601280BD065
:10249000022822D100034FF48048012942D00229AA
:1024A0004FD003295DD05FE04FF400704FF4006817
:1024B000012904D0022915D0032910D023E00146B8
:1024C00000223046FEF7A8F9012241463046FEF7C9
:1024D000A3F92068456320688763BDE8F081002F79
:1024E000EDDC10DA01464FF001023046FEF794F9B8
:1024F000002241463046FEF78FF9384600F022FCB4
:10250000216848630BE0014600223046FEF784F95B
:10251000002241463046FEF77FF920684563206877
:102520008563DAE7014600223046FEF775F901229D
:1025300041463046FEF770F92068C563206807649D
:10254000CBE7014601223046FEF766F900224146FC
:102550003046FEF761F9384600F0F4FB2168C863A5
:102560000FE0002FDEDCECDB01464FF000023046CE
:10257000FEF752F9002241463046FEF74DF9206839
:10258000C56320680564A8E700180140980500208D
:10259000FEF74EB930B58FB028216846FDF7D3FE5F
:1025A00014210AA8FDF7CFFE01210804CDE900108F
:1025B0000024029402250491CDE907504FF4E01065
:1025C00009906846FEF7A8FA08B172B6FEE70F2038
:1025D000CDE90A054FF48060CDE90C4002210AA83C
:1025E0000E94FEF7BDF9002801D072B6FEE70FB0D9
:1025F00030BD70470148FEF757BE00002806002096
:102600000148FEF751BE0000700600200148FEF7A9
:102610004BBE0000B8060020F0B502681C4B1D4DF3
:102620001D4E1E4F1E4C4FF0804C984209D0A042C8
:1026300007D0604505D0A84203D0B04201D0B842CF
:1026400004D122F0700E4A6842EA0E02984209D084
:10265000A04207D0604505D0A84203D0B04201D0C7
:10266000B84203D122F44075CA682A434D6922F06A
:1026700080022A4302608A68C2620A6882629842C3
:1026800001D0A04201D10969016301214161F0BD7E
:10269000002C01400004004000080040000C0040F5
:1026A0000034014010B501F01F030121046A994074
:1026B0008C430462016A9A401143016210BD00001C
:1026C000F0B5036A026A22F001020262426884697C
:1026D000124E24F073050C682C4323F002058B681E
:1026E0002B430D4DA84201D0B04205D123F008077D
:1026F000CB683B4323F00403A84201D0B04205D18C
:102700004D6922F4407215438A692A43426084610C
:10271000496841630362F0BD002C01400034014070
:10272000F0B5026A036A23F0100303624368846908
:102730000D6824F4E64444EA05248D6822F0200262
:1027400042EA05120F4D104EA84201D0B04206D108
:10275000CF6822F0800242EA071222F04002A8422B
:1027600001D0B04207D14D6923F4406343EA8503A9
:102770008D6943EA8503436084614968816302622D
:10278000F0BD0000002C014000340140F0B5026AA9
:10279000036A23F4807303624368C46922F40072FD
:1027A00024F073050C68124E2C438D6842EA052212
:1027B0000E4DA84201D0B04206D1CF6822F400628B
:1027C00042EA072222F48062A84201D0B04207D137
:1027D0004D6923F4405343EA05138D6943EA051319
:1027E0004360C4614968C1630262F0BD002C0140CE
:1027F0000034014030B5046A026A22F48052026259
:102800004268C3690D6823F4E64343EA05238D68F3
:1028100024F4005444EA0534084DA84202D0084D7F
:10282000A84204D14D6922F4804242EA85124260F6
:10283000C36149680164046230BD0000002C01409E
:102840000034014010B5406A0021C185C184FEF703
:1028500049FF10BD01680C3151E8002F22F490723D
:1028600041E80023002BF5D10168143151E8002F15
:1028700022F0010241E80023002BF5D1016B012970
:1028800009D101680C3151E8002F22F0100241E813
:102890000023002BF5D1202180F842100021016394
:1028A000704708B590F84210222901D0022008BDD7
:1028B00082684FF480539A4201D1016921B1816A43
:1028C0009A421BD04AB10AE00268816A5268C2F398
:1028D00008020A80816A891C08E0026972B10268F4
:1028E000526802F07F020A70816A491C8162C18DC0
:1028F000491E0904090CC18503D01BE00268526817
:10290000F1E70168CA6822F02002CA600168CA685B
:1029100022F48072CA6001684A6922F001024A61A9
:10292000202180F8421000214163026B012A03D06C
:10293000FFF790F8002008BD016301680C3151E8F1
:10294000002F22F0100241E80023002BF5D101688E
:102950000A68D20602D50A6849680091818DFEF79F
:10296000C0FEE7E770B5044600680169E26821F43B
:102970004051114301612169A0680843616908431E
:102980002168CA6841F20C639A430243CA60206816
:102990004169A26921F44071114341611E492068D7
:1029A000884202D1FEF782F801E0FEF76FF800EBF3
:1029B000C00101EB0012606864218000B2FBF0F3FB
:1029C000B3FBF1F36FF018067343B2FBF0F5B2FB03
:1029D000F0F605EB8305322303EB0515B5FBF1F5A6
:1029E000B6FBF1F605F0F00505EB0615B2FBF0F6C7
:1029F000B2FBF0F0B0FBF1F06FF01802504306EBC1
:102A0000800003EB0010B0FBF1F0216800F00F0034
:102A10002844886070BD00000038014081628285D2
:102A2000C28500214164222180F84210016921B150
:102A30000168CA6842F48072CA6001684A6942F05B
:102A400001024A610068C16841F02001C1600020B4
:102A500070472DE9F041984617460E460446069DFC
:102A600027E0681C25D02DB1FDF7DCFEA0EB0800A7
:102A7000A8421ED920680C3050E8001F21F4D07104
:102A800040E80012002AF5D12068143050E8001FF9
:102A900021F0010140E80012002AF5D1202084F83D
:102AA000410084F84200002084F840000320BDE883
:102AB000F0812068006836EA000004D00020B842A7
:102AC000CFD00020F3E70120F9E700000148FEF72E
:102AD0000BBE000048070020FEE70907090E00288A
:102AE00004DB00F1E02080F80014704700F00F00D4
:102AF00000F1E02080F8141D704730380A2801D218
:102B0000012070470020704710B5074900F0D8FC3D
:102B1000064900F01FFE064900F05EFC00F0AEFD25
:102B200004490968886310BD000034430000FA447A
:102B30000000FA43E005002010B5074900F0C0FC92
:102B4000064900F007FE064900F046FC00F096FD3D
:102B500004490968886310BD000034430000FA444A
:102B60000000FA43E005002010B500F0F3F80D4C2A
:102B7000E16800F031FCE06000F0ECF80A4900F098
:102B8000E9FD0246A0600948E1684068FFF720FCC3
:102B9000A06100F057FD02460321BDE8104001206E
:102BA000FFF76EBC0000002000002041500500200F
:102BB00010B500F0EDF80D4C616900F00DFC60619E
:102BC00000F0E6F80A4900F0C5FD02462061094818
:102BD00061698068FFF70EFCE06100F033FD02469A
:102BE0000321BDE810400220FFF74ABC000000208E
:102BF000000020415005002070B5044608461546E7
:102C000000F020FD00B200F0A1F86060284600F05E
:102C100019FD00B200F09CF8A06070BD1CB5FDF776
:102C20000FFEFFF7B7FCFEF7E3FFFFF73FF8FFF7F4
:102C3000A5F8FFF7DBF8FFF70FF9FFF743F9FFF708
:102C400089F9FFF763F9012230493148FEF7F4FEB4
:102C50003048FEF7C7F9FFF7DDF900212E48FEF7EF
:102C6000DBFA04212C48FEF7D7FA00212B48FEF7A7
:102C7000D3FA04212948FEF7CFFA00212848FEF7AD
:102C8000C1FC04212648FEF7BDFC08212448FEF7BC
:102C9000B9FC0C212248FEF7B5FC04212148FEF7BF
:102CA000B1FC2148FEF7D0F92148204C00216202F6
:102CB0000460C0E9011250304FF07E520460C0E958
:102CC00001121C4D1C4E1D4FCDE900653B461C4AB0
:102CD00021462838FFF7A0FB1548CDE900653B46A3
:102CE000002221467830FFF797FB012400F06EF8B0
:102CF0000F4A1023D4321D2100200094FFF7AEFAB2
:102D00000020FFF75BF9FFF703FAEFE70000002070
:102D10004807002000070020280600207006002039
:102D200098050020E0050020B806002000002041A2
:102D3000B00400200000FA4400007A440000404043
:102D4000CDCCCC3D002800DA4042704700F0B6BC44
:102D500000F0B4BC10B5FDF77BFB400000F026FA94
:102D6000074A084B00F03AFA0022074B00F036FA07
:102D70000022064B00F0C2F8BDE8104000F08CB80D
:102D80001F85EB51B81E09400000F83F0030A140FC
:102D900010B5FDF769FB400000F008FA074A084B40
:102DA00000F01CFA0022074B00F018FA0022064B34
:102DB00000F0A4F8BDE8104000F06EB81F85EB519C
:102DC000B81E09400000F83F0030A14070B5274C04
:102DD000A078002849D0264800680F2845D9254DFD
:102DE0002978412921D02448422928D0432920D0BC
:102DF000442924D0452925D04FF07E52462924D09D
:102E0000472924D0482929D01CA1A5F11400FDF799
:102E1000FFF932231422A5F114011B48FEF73AFEF4
:102E20000021A170084662781CE01848FFF784FE74
:102E3000F6E7012211021648FDF7EEFCF0E7FFF776
:102E400063FEEDE70022134903E0002101E04FF0AB
:102E5000814108483438FFF7CFFEE1E70022F4E76C
:102E60002954401C9042FBDB617070BD00000020C3
:102E700024140040840500200000C8426572726F6F
:102E800072210D0A00000000480700200000A04148
:102E9000000C01400000C04021F00042A2F160524D
:102EA000B2F5801F01F0004328BFD2F17F6C0BD92F
:102EB0005FEA001C43EAC20242EB507018BF704741
:102EC00028BF20F001007047B2F5801FBCBF184634
:102ED00070474FEA410C1CF5001F02D2084600F073
:102EE00000BD70B500F024FA00000089FFF7F6BFBE
:102EF0004FF00040A0F58000704700002DE9C04170
:102F000030B4DFF8A0C23CEA111418BF3CEA131435
:102F100000F0EC8081EA03051CEA111444EAD57440
:102F200018BF1CEA131500F0C780A4EB05044FF08E
:102F3000004545EAC12145EAC32341EA505143EA2D
:102F4000525304F17F74994204F500344FEAC020D3
:102F50004FEAC22208BF904200F09C804FEA1365FE
:102F60000FF24016765D4FEA134506FB05F7C7F1F1
:102F7000807706FB07F74FEAD737A7FB036876424F
:102F8000C8F58038A7FB06CE38BFA8F1010807FBBB
:102F900008E64FF0000EA6FB028CE6FB03CEDCF148
:102FA000000CCEF1004E38BFAEF1010EA6FB0C585E
:102FB0004FF000074FF00005E6FB0E87A1FB08C6A7
:102FC000A0FB07CE16EB0E0645F10005E1FB0765F9
:102FD00015F1E04E7EBFA4F580345FEA46066D41F0
:102FE00016F1800745F100054FEA17274FEA0666FC
:102FF00047EA0567A6F1DE46B6F1805F4FEA152580
:103000001FD9384624F0010C05EBC471BCF1FE6FEA
:1030100001EB0C1102D8F0BCBDE8008124425CBF7A
:1030200001F5801E9EEAC47F02D4F0BCBDE8008199
:10303000244238D4F0BCA1F1C041BDE8004100F009
:10304000C5B94FEAD22242EA43524FEAD323A7FB43
:1030500002864FEAD02040EA415007FB03661EEA91
:103060000E0F4FEAD12105FB026658BFA6EB0056B2
:10307000B6EB00564FEA520E4EEAC37E18EB0E0E28
:1030800056EB530EBDD518EB02085E417F1C55F17F
:103090000005B6E74FF480154FF000074FF000062B
:1030A0004FF00008ADE7F0BC4FF0000001F1C04167
:1030B00001F00041BDE8008111EA0C1F0CEA131574
:1030C00000D00CE013EA0C1F00F025804FF0000048
:1030D000F0BC81EA030101F00041BDE80081F0BCD1
:1030E000BDE8004181EA030100F070B9F0BCBDE821
:1030F000004170B500F01CF9097EFC3E00F007B8F5
:1031000081EA03014FF0000001F00041704781EABD
:10311000030100F05BB9F0BCBDE800414FF00000D6
:1031200021497047FFFDFBF9F7F5F4F2F0EEEDEB06
:10313000E9E8E6E4E3E1E0DEDDDBDAD8D7D5D4D3B5
:10314000D1D0CFCDCCCBCAC8C7C6C5C4C2C1C0BF01
:10315000BEBDBCBBBAB9B8B7B6B5B4B3B2B1B0AF07
:10316000AEADACABAAA9A8A8A7A6A5A4A3A3A2A1EB
:10317000A09F9F9E9D9C9C9B9A99999897979695A6
:1031800095949393929191908F8F8E8E8D8C8C8B42
:103190008B8A8989888887878685858484838382CA
:1031A000828181800000FF070000F87F10F000425C
:1031B00048BF4042B0FA80F310FA03F10AD0C3F1DD
:1031C0001D0303F580634FEA415002EB035202EB0B
:1031D000D12170474FF0000070470000DFF848C170
:1031E00070B51CEA111E1EBF1CEA13159EEA0C0FD7
:1031F00095EA0C0F00F06F8081EA030423EA4C1378
:103200004EEAD47E21EA4C1141F4801143F480133C
:10321000AE44A1FB024CA0FB0365AEF17F7E3619E4
:1032200055EB0C05A1FB034C4CF10003A0FB021C69
:1032300016EB0C06654153F10003094218BF46F036
:10324000010613F4007F0BD14FEA03314FEA05303A
:10325000340341EA155140EA16506FF003020AE0C8
:103260004FEAC3214FEAC520F40241EA555140EA32
:1032700056506FF0020202EB2E4201EB025585EA36
:10328000CE710AD05FEA440C18BF24F0004450F11C
:10329000000041F1000120EAD47040F2FE7C62455A
:1032A00000D270BDA84214BF4FF080444FF040449C
:1032B000002E08BF0024BEF1806FA8BFA1F1C0415D
:1032C000BDE8704080F282804FF0000001F1C04103
:1032D00001F0004170479EEA0C0F0CEA131518BF6D
:1032E00095EA0C0F06D04FF0000081EA030E0EF0B5
:1032F000004170BD00F01CF88900013E00F007B8E5
:1033000000F009B84FEA430C5FEA5C5C08D081EA40
:10331000030100F05BB84FEA410C5FEA5C5CF6D158
:103320004FF00000014970470000FF070000F87FE0
:103330000EF1020E2EF0030E5EF8046B364205D439
:10334000012A43EB030515F5001F12D8012841EBB4
:10335000010C1CF5001F0CD80ED14FEAD17C15F5DD
:10336000001F0CEB4C0C0CF1020C08BF4CEBD37C97
:1033700004E04FF0080C01E04FEAD37C0CEB4C0565
:1033800026FA05F606F00706B6F1040C06D20EEB97
:10339000860CBDE870404CF0010C6047DFE80CF093
:1033A000090B02024FF000414FF00000A1F500218F
:1033B00070BD19461046012851EB010418BFD4F521
:1033C000001484BF002001F0004170BD0808A0F582
:1033D00000114FEA3101704790EA010F48BF81F0B8
:1033E000004100F1C682421A3CBF801A89184FEA98
:1033F000D0524FF07F4C1CEA410FA2EBD15318BFC3
:103400009CEA026F00F03B804FF0004C4CEA002039
:103410004CEA012121FA03FC10EB0C0C1ED202F144
:10342000FF325FEA1C2040EBC25038BF70471CF0EF
:103430007F0F4FEA400C18BFBCF17F4F38BF704779
:10344000C3F12003994008BF20F00100BCF17F4F79
:1034500038BF7047A0F1C04000F043BA4FEA3C00CB
:10346000000A40EBC25028BF1CF0FF0F4FEA400C8F
:10347000E6D018BFBCF17F4F38BF7047EAE79CEA3F
:10348000026F05D010EA5C0F08BF00F000407047E3
:1034900010B500F0E0F900BF64FBBE3E014800F04B
:1034A000D6BA00BF0000C07F401058BFC0F14040F6
:1034B000491058BFC1F140418142EFF3008070478D
:1034C0004FF47F0C1CEAD0121EBF1CEAD11392EA03
:1034D0000C0F93EA0C0F00F0858090EA010F48BFB3
:1034E00042F4807240F4000C41F400002CF07F4163
:1034F00020F07F4000B58142A2EB03020FF2081CCE
:10350000ACEB504EC0F100009EF800E04FEA4E0ECA
:1035100000FB0EFC38BF49004FEA2C1C02F5FA02F2
:103520000CFB0EF34FEACE1E4FEA112C4FEAC121DD
:103530000EEB635E42EB22420EFB0CFC4FEA1C5387
:1035400000FB03114FEA112C4FEA01310EFB0CFC7A
:103550004FEADC4C00FB0C11C14228BF09184CEBB0
:1035600003335DF804EB10EB410143EBC250B2F5BD
:103570007C0F38BF704729D512F0F00F1CBF00F147
:10358000C04000F0004070470081828384858687B8
:1035900088898B8C8D8E8F919293959697999A9C12
:1035A0009D9FA0A2A3A5A7A8AAACAEB0B2B3B5B781
:1035B000B9BCBEC0C2C5C7C9CCCED1D4D7D9DCDF57
:1035C000E2E6E9ECF0F3F7FAFE0000004FEA400C07
:1035D0000CF1807CBCF17E4F28BF7047B0F1C04039
:1035E00000F07FB990EA010F0CEAD11348BF42F412
:1035F0008072624538BF634507D213F47F0F16D03F
:1036000080EA010000F00040704710B500F023F997
:10361000097EFC3E00F005B880EA010000F00040A1
:10362000704780EA010000F0004000F05AB912F43F
:103630007F0F04BF0248704780EA010000F051B9D3
:103640000000C07F41000B0ED3F19E0208D950F458
:1036500000034FEA032323FA02F048BF40427047B9
:1036600010B500F0F8F800BF4992248000207047A0
:103670006FF0004282EA200070470000C10DD1F1D6
:103680009E0206DB4FEA002343F0004323FA02F0D8
:103690007047004207D54FEA4001B1F1FE4F02D218
:1036A0004FF00000704710B500F0D5F84992248023
:1036B000002070476FEA20007047000010F00041C2
:1036C00048BF4042B0FA80F310FA03F2C3F19D0301
:1036D0000BD051EAC35101EB1220530638BF70479B
:1036E00000F1010008BF20F00100704750EA010C12
:1036F00000F113801CF5000F58BFBCF5000F01D47A
:103700008842704707D710F5000F58BF11F5000F1A
:1037100015D488427047894270471CF5000F04D5C4
:10372000BCF5000FF7D5814270474FF0807C1CEB51
:10373000400F38BF1CEB410F01D28142704710B5DA
:1037400000F089F8922449004FF000504FF080516A
:10375000FFF7AABE4FF47F0C1CEAD0121EBF1CEA72
:10376000D11392EA0C0F93EA0C0F00F0478090EA15
:10377000010F48BF42F480724FF0004C4CEA002029
:103780004CEA012102EB0302A0FB0113A2F50002A7
:10379000002918BF43F001035B0028BF4FEA330341
:1037A00042EB22425FEA132C4CEBC2502EBFBCEB23
:1037B000436FB2F57C0F70474FEA036CBCF1004FCA
:1037C00008BF20F00100B2F57C0F38BF70470BD561
:1037D00082F0FF0212F5803FC8BF704700F1C04081
:1037E000D8BF00F00040704700F5000C5FEA4C0CB9
:1037F00048BF7047B0F1C04000F073B890EA010FC5
:103800000CEAD11348BF42F48072624538BF634569
:1038100004D280EA010000F00040704710B500F0CB
:103820001AF800BF8900013E00F007B800F009B89F
:103830005FEA410C5FEA1C6C08D080EA010000F0EE
:1038400050B85FEA400C5FEA1C6CF6D14FF00040C4
:10385000A0F5800070470EF1020E2EF0030E5EF808
:10386000044B244204D44FEA4102B2F17F4F11D8F5
:103870004FEA4003B3F17F4F0CD80ED14FEAD07C12
:10388000B2F17F4F0CEB4C0C0CF1020C08BF4CEB6F
:10389000D17C04E04FF0080C01E04FEAD17C0CEB46
:1038A0004C0324FA03F404F00704B4F1040C06D228
:1038B0000EEB840CBDE810404CF0010C6047DFE8D3
:1038C0000CF0070802024FF00040A0F5800010BD88
:1038D0000846420018BFD2F1807288BF00F0004055
:1038E00010BDFF2141EAD050C005704751EA000CDD
:1038F00000F113801CF5000F58BFBCF5000F01D478
:103900008142704707D711F5000F58BF10F5000F1F
:1039100015D481427047894270471CF5000F04D5C9
:10392000BCF5000FF7D5884270474FF0807C1CEB48
:10393000410F38BF1CEB400F01D28842704780EA2C
:10394000010081EA000180EA0100FFF7F8BE80F083
:10395000004090EA010F7FF546AD81F0004100F094
:1039600008B8000090EA010F48BF81F000413FF520
:103970003AAD421A04D882F00042A0EB0200114492
:103980004FEAD0524FF07F4C1CEA410FA2EBD153CB
:1039900018BF9CEA026F4AD04FF0004C4CEA00205E
:1039A0004CEA012121FA03FCB0EB0C0C0FD412F00D
:1039B000FE0F36D05FEA4C001DD5001240EBC2501E
:1039C00038BF70471CF03F0F18BF70470BE0A2F1E3
:1039D00001025FEA1C2040EBC25038BF70471CF068
:1039E0007F0F18BF7047C3F12003994014BF401EDA
:1039F00020F00100704780084FEA122308BF70478B
:103A0000B0FA80FCA2EB0C02CCF1280C60FA0CF0AE
:103A100093EA122F04BF00EBC25070474FEAC37005
:103A20007047130A5FEADC1008BF7047F6E79CEAAC
:103A3000026F04D010EA5C0F08BF0020704710B579
:103A4000FFF709FF40DFF63E81F0004070470CF0C1
:103A50000F03092B08BF082000F051800A2B0BD060
:103A6000082B18BF704708BF1CF0400F0AD04FF05A
:103A700000004FF0000170471CF0400F18BF4FF0DE
:103A8000004070471CF0100F08D020F0704300F089
:103A90007F4242EAD3014FEA4370704700F0604032
:103AA00021F07F4242EA000201F07F4040EA72705A
:103AB00070474FF0FF0212EAD0521CBF92F0FF0392
:103AC0008B42C2BFD14200EBC1507047002A0AD0DE
:103AD000002B0BD0002900F00040A4BF40F0FE40B6
:103AE00040F40000704700F00040704743024FF080
:103AF0000B0C18BF4CF0806C7FF4D0AC70471CF4FA
:103B0000801F11D01CF4E02F03D06FEACC314900A4
:103B100070474FF04050EFF3008222F0704242EACB
:103B2000000282F3008870474FF0000070470000E9
:103B3000000000000000002F000000000700070048
:103B400000147F147F1400242A7F2A120062640864
:103B500013230036495522500000050300000000E1
:103B60001C224100000041221C000014083E0814E1
:103B70000008083E0808000000A0600000080808CF
:103B80000808000060600000002010080402003EE9
:103B90005149453E0000427F400000426151494684
:103BA000002141454B31001814127F100027454574
:103BB0004539003C4A494930000171090503003686
:103BC0004949493600064949291E00003636000099
:103BD000000056360000000814224100001414149E
:103BE0001414000041221408000201510906003299
:103BF0004959513E007C1211127C007F49494936D7
:103C0000003E41414122007F4141221C007F494941
:103C10004941007F09090901003E4149497A007F75
:103C20000808087F0000417F4100002040413F011B
:103C3000007F08142241007F40404040007F020C7A
:103C4000027F007F0408107F003E4141413E007F1B
:103C500009090906003E4151215E007F09192946E4
:103C60000046494949310001017F0101003F4040C0
:103C7000403F001F2040201F003F4038403F00636E
:103C80001408146300070870080700615149454390
:103C900000007F41410000552A552A55000041414E
:103CA0007F00000402010204004040404040000048
:103CB00001020400002054545478007F48444438E2
:103CC00000384444442000384444487F0038545469
:103CD000541800087E0901020018A4A4A47C007FE7
:103CE000080404780000447D4000004080847D008A
:103CF000007F102844000000417F4000007C041831
:103D00000478007C0804047800384444443800FCFB
:103D1000242424180018242418FC007C0804040817
:103D200000485454542000043F444020003C40408C
:103D3000207C001C2040201C003C4030403C0044C3
:103D400028102844001CA0A0A07C004464544C44CB
:103D500014141414141400000000000000000000EB
:103D600000000000FC000000000002000000000C49
:103D7000020C020000000000000090D0BCD0BC90FB
:103D80000003000300001824FE448C000302070215
:103D900001001824D8B04C80000300010201C03893
:103DA000E438E000010202010202080600000000FF
:103DB000000000000000000000F804020000000104
:103DC0000204000204F800000004020100009060F8
:103DD000F86090000000010000002020FC2020007E
:103DE00000000100000000000000000008060000C4
:103DF0000000202020202000000000000000000023
:103E0000000000000002000000000080601C0200B2
:103E1000040300000000F8040404F8000102020298
:103E200001000008FC0000000002030200001884EA
:103E30004424180003020202020008042424D800CB
:103E400001020202010040B088FC80000000000373
:103E500002003C242424C400010202020100F824D0
:103E6000242CC0000102020201000C04E41C040026
:103E7000000003000000D8242424D800010202021C
:103E8000010038444444F80000030202010000002D
:103E900010000000000002000000000020000000F0
:103EA000000006000000002050880402000000000E
:103EB000010290909090900000000000000000022D
:103EC000048850200002010000001804C4241800D7
:103ED000000002000000F804E494F800010202026D
:103EE000020000E09CF0800002030000030204FCDA
:103EF0002424D800020302020100F80404040C0088
:103F000001020202010004FC0404F80002030202A0
:103F1000010004FC24740C0002030202030004FCF0
:103F200024740C00020302000000F0080444CC409A
:103F300000010202010004FC2020FC040203000036
:103F400003020404FC040400020203020200000451
:103F500004FC040406040403000004FC24D00C0444
:103F600002030200030204FC040000000203020238
:103F70000203FC3CC03CFC0003000300030004FC03
:103F800030C4FC04020302000300F8040404F80037
:103F900001020202010004FC2424180002030200B2
:103FA0000000F8848404F80001020207050004FC04
:103FB00024649800020302000302182424448C00A5
:103FC0000302020201000C04FC040C0000020302C4
:103FD000000004FC0000FC04000102020100047C5B
:103FE00080E01C040000030000001CE03CE01C001A
:103FF000000300030000049C609C04000203000313
:104000000200041CE01C04000002030200000C84F7
:10401000641C04000203020203000000FE0202000E
:10402000000007040400000E30C000000000000182
:104030000200000202FE0000000404070000000469
:10404000020400000000000000000000000000006A
:10405000080808080808000002000000000000002E
:1040600000000040A0A0C00000010202030204FC06
:104070002020C00000030202010000C020206000D8
:1040800000010202020000C02024FC000001020224
:10409000030200C0A0A0C000000102020200002034
:1040A000F82424040002030202000040A0A06020C3
:1040B00000070A0A0A0404FC2020C00002030200D0
:1040C00003020020E40000000002030200000000E0
:1040D00020E4000008080807000004FC80E020201D
:1040E0000203020003020404FC00000002020302B7
:1040F0000200E020E020C00003000300030020E0F5
:104100002020C00002030200030200C02020C000E3
:1041100000010202010020E02020C000080F0A0276
:10412000010000C02020E0000001020A0F0820E08A
:10413000402020000203020000000060A0A0200038
:104140000002020203000020F8200000000001022B
:10415000020020E00020E00000010202030220E053
:10416000208060200000030100006080E08060008B
:1041700000030003000020608060200002030003B1
:10418000020020E0208060200808070100000020D5
:10419000A0602000000203020200000020DE0200F6
:1041A000000000070400000000FF00000000000FF6
:1041B00000000002DE2000000004070000000201F1
:1041C00002040402000000000000000000000000E3
:1041D00000000000000000000000000000F80000E7
:1041E0000000000000333000000000100C06100C2E
:1041F0000600000000000000000040C07840C078C9
:104200004000043F04043F040400007088FC0830B0
:104210000000001820FF211E0000F008F000E01848
:10422000000000211C031E211E0000F00888700001
:1042300000001E2123241927211010160E00000053
:1042400000000000000000000000000000E0180472
:104250000200000000071820400000020418E000DF
:1042600000000040201807000000404080F080401F
:1042700040000202010F01020200000000F00000F5
:1042800000000101011F0101010000000000000009
:10429000000080B07000000000000000000000007E
:1042A0000000000101010101010100000000000007
:1042B00000000030300000000000000000008060BE
:1042C0001804006018060100000000E01008081043
:1042D000E000000F102020100F00001010F8000068
:1042E00000000020203F20200000007008080888FF
:1042F00070000030282422213000003008888848CF
:1043000030000018202020110E000000C02010F8FE
:10431000000000070424243F240000F808888808CF
:1043200008000019212020110E0000E010888818D4
:104330000000000F112020110E0000380808C838B6
:1043400008000000003F0000000000708808088896
:104350007000001C222121221C0000E0100808101F
:10436000E0000000312222110F00000000C0C00058
:10437000000000000030300000000000008000005D
:10438000000000008060000000000000804020105D
:104390000800000102040810200040404040404056
:1043A00040000404040404040400000810204080B9
:1043B00000000020100804020100007048080808EE
:1043C000F0000000003036010000C030C828E810BE
:1043D000E0000718272423140B000000C038E00079
:1043E0000000203C23020227382008F888888870C3
:1043F0000000203F202020110E00C03008080808CF
:104400003800071820202010080008F808080810B5
:10441000E000203F202020100F0008F88888E808DE
:104420001000203F20202320180008F88888E80882
:104430001000203F200003000000C03008080838AA
:10444000000007182020221E020008F808000008BB
:10445000F808203F210101213F20000808F8080842
:1044600000000020203F2020000000000808F8087D
:104470000800C08080807F00000008F888C02818ED
:104480000800203F20012638200008F8080000001E
:104490000000203F20202020300008F8F800F8F825
:1044A0000800203F003F003F200008F830C000080F
:1044B000F808203F200007183F00E0100808081007
:1044C000E0000F10202020100F0008F8080808084E
:1044D000F000203F210101010000E0100808081051
:1044E000E0000F18242438504F0008F88888888886
:1044F0007000203F2000030C30200070880808085E
:1045000038000038202121221C00180808F808086B
:1045100018000000203F2000000008F808000008F4
:10452000F808001F202020201F000878880000C8FD
:104530003808000007380E010000F80800F80008ED
:10454000F800033C0700073C0300081868808068F7
:10455000180820302C03032C30200838C800C83835
:1045600008000000203F2000000010080808C8389C
:1045700008002038262120201800000000FE02023A
:1045800002000000007F40404000000C30C00000EE
:104590000000000000010638C00000020202FE0018
:1045A0000000004040407F000000000004020202C2
:1045B00004000000000000000000000000000000F7
:1045C00000008080808080808080000202040000E3
:1045D00000000000000000000000000080808080DB
:1045E00000000019242222223F2008F800808000C9
:1045F0000000003F112020110E000000008080808C
:104600000000000E11202020110000000080808892
:10461000F800000E112020103F20000080808080D4
:104620000000001F222222221300008080F08888D0
:1046300088180020203F202000000000808080801B
:104640008000006B94949493600008F80080808050
:104650000000203F210000203F20008098980000AB
:1046600000000020203F20200000000000809898DB
:10467000000000C08080807F000008F8000080807B
:104680008000203F24022D302000000808F80000A0
:1046900000000020203F202000008080808080805B
:1046A0008000203F20003F20003F808000808080ED
:1046B0000000203F210000203F20000080808080FB
:1046C0000000001F202020201F008080008080002C
:1046D000000080FFA12020110E00000000808080DB
:1046E0008000000E112020A0FF808080800080804C
:1046F000800020203F212000010000008080808079
:1047000080000033242424241900008080E080806D
:1047100000000000001F20200000808000000080BA
:104720008000001F202020103F208080800000801B
:10473000808000010E30080601008080008000802B
:1047400080800F300C030C300F00008080008080D0
:1047500080000020312E0E312000808080000080FB
:10476000808080818E7018060100008080808080AB
:1047700080000021302C2221300000000000807CCD
:10478000020200000000003F404000000000FF0067
:10479000000000000000FF0000000002027C80001A
:1047A00000000040403F000000000006010102023E
:1047B00004040000000000000000000000000000F1
:1047C00000000000000000000000000000000000E9
:1047D00000000000000000000000000000000000D9
:1047E000000000F0F0F000000000000000000001F8
:1047F0007F010000000000000000001C1C1C0000E5
:10480000000000008060301C8C60301C0C00000038
:104810000000000000000000000000000000000098
:10482000000000000000000000E00000000000E0C8
:1048300000000086E69F86868686E69F8600000149
:104840001F01010101011F010100000080C0602063
:10485000F820E0C00000000003070C18FF70E181A1
:1048600000000000070F10107F100F07000080608D
:10487000206080000000E02000000F3020309F709A
:10488000DC371030C0000000100E030007181018AD
:1048900007000000C02020E0C0000000000080E011
:1048A0001F38E88703C43C040000070F1810100BE2
:1048B000070D1010080000808C4C3800000000002C
:1048C00000000000000000000000000000000000E8
:1048D00000000000000000000000000000000000D8
:1048E00080E0300804000000000000FEFF0100002E
:1048F0000000000000000000030F1820400000042A
:104900000830E0800000000000000000000001FF0F
:10491000FE0000000000004020180F03000000000F
:104920000000000000000000C00000000000004285
:1049300066663C18FF183C666642000000000000F6
:1049400003000000000000000000000080000000E4
:104950000000001010101010FF10101010100000B8
:104960000000000003000000000000000000000044
:104970000000000000000000000000000000000037
:10498000000000808C4C3800000000000000000097
:1049900000000000000000000000001010101010C7
:1049A00010101010100000000000000000000000B7
:1049B00000000000000000000000000000000000F7
:1049C0000000000000000000000000001C1C1C0093
:1049D0000000000000000000000000000000E038BF
:1049E0000C000000000080701C030000000000604C
:1049F000380E0100000000000000000080C06020B0
:104A00002060C080000000FEFF010000000001FFE8
:104A1000FE000001070E181010180E07010000001C
:104A2000808080C0E000000000000000000000FF67
:104A3000FF000000000000001010101F1F101010D9
:104A400000000080402020202060C0800000000383
:104A50000300804020381F070000001C1A19181896
:104A60001818181F00000080C020202060C080009F
:104A70000000000303001010182FE780000000075B
:104A80000F10101010180F070000000000000000A9
:104A9000C0E0F000000000C0B088868180FFFF8089
:104AA0008000000000000010101F1F101000000008
:104AB000E060606060606060000000003F10080817
:104AC0000818F0E0000000070B101010101C0F0376
:104AD0000000000080C040202020E0C0000000FC5A
:104AE000FF211008080818F0E0000001070C18105A
:104AF0001010080F03000000C0E06060606060E01C
:104B00006000000003000000E01807000000000043
:104B10000000001F1F00000000000080C060202077
:104B2000202060C080000087EF2C1818303068CF3C
:104B3000830000070F0810101010180F0700000066
:104B4000C0C020202020C0800000001F3F604040E7
:104B5000402010FFFE0000000C1C101010080F0376
:104B60000000000000000000000000000000000045
:104B70000000000E0E0E0000000000000000001CEF
:104B80001C1C0000000000000000000000000000ED
:104B9000000000000000000C0C00000000000000FD
:104BA0000000005838000000000000000000000075
:104BB0000080402010000000102844820100000006
:104BC00000000000000000000102040810000000C6
:104BD0000000000000000000000000848484848441
:104BE0008484848484000000000000000000000031
:104BF00000000000102040800000000000000000C5
:104C00000000000001824428100000001008040287
:104C100001000000000000C020201010101030E043
:104C2000C0000003030000F010080C0703000000A0
:104C300000001C1C1C0000000000000000C04060C0
:104C400020202040C00000FCFF01F00E03C1FE0345
:104C5000807F0001070E08111110110904020000E5
:104C6000000080E0E000000000000000807C434085
:104C7000477FF880000010181F1000000000131F6D
:104C80001C1020E0E02020202060C080000000FFF9
:104C9000FF10101010182FE78000101F1F101010A9
:104CA0001010180F0700000080C040202020206056
:104CB000E00000FCFF010000000000000100000116
:104CC000070E181010100804030020E0E020202038
:104CD0002040C080000000FFFF000000000001FF36
:104CE000FE00101F1F10101018080E07010020E012
:104CF000E020202020202060800000FFFF10101006
:104D0000107C00000000101F1F1010101010101851
:104D1000060020E0E020202020206060800000FFCE
:104D2000FF101010107C00000100101F1F10000069
:104D3000000000000000000080C06020202040E053
:104D4000000000FCFF0100004040C0C140400001E5
:104D5000070E181010100F0F000020E0E0200000D8
:104D6000000020E0E02000FFFF101010101010FFE6
:104D7000FF00101F1F1000000000101F1F10000078
:104D8000202020E0E020202000000000000000FFA4
:104D9000FF000000000000001010101F1F10101076
:104DA000000000000000202020E0E0202020000083
:104DB0000000000000FFFF0000000060E080808035
:104DC000C07F3F00000020E0E020000020A0602025
:104DD000200000FFFF30187CE3C000000000101F1F
:104DE0001F10000001131F1C181020E0E02000001D
:104DF00000000000000000FFFF00000000000000B5
:104E00000000101F1F10101010101018060020E0D6
:104E1000E0E000000000E0E0E02000FF013FFEC015
:104E2000E01E01FFFF00101F1000031F0300101FF2
:104E30001F1020E0E0C0000000000020E02000FF84
:104E40000003071C78E08000FF00101F1000000026
:104E50000000030F1F00000080C060202060C080A1
:104E6000000000FEFF010000000000FFFE00000146
:104E7000070E181010180C07010020E0E020202079
:104E8000202060C0800000FFFF2020202020301F55
:104E90000F00101F1F1000000000000000000000A5
:104EA00080C060202060C080000000FEFF01000084
:104EB000000000FFFE000001070E1111133C7C678B
:104EC000210020E0E0202020202060C0800000FFA2
:104ED000FF101030F0D0080F0700101F1F10000047
:104EE00000030F1C10100080C060202020204040D4
:104EF000E00000070F0C1818303060E08100001F40
:104F00000C0810101010180F07008060202020E0FF
:104F1000E020202060800100000000FFFF00000072
:104F2000000100000000101F1F100000000020E022
:104F3000E020000000000020E02000FFFF00000053
:104F400000000000FF0000070F18101010101008DC
:104F500007002060E0E02000000020E0602000006A
:104F6000077FF88000807C03000000000000071F1E
:104F70001C070000000020E0E02000E0E02000200E
:104F8000E0200007FFF8E01FFFFCE01F000000002A
:104F9000031F0300011F03000000002060E0A000C9
:104FA0000020E0602000000000038F7CF8C60100B4
:104FB00000000010181E130001171F1810002060B9
:104FC000E0E02000000020E06020000001073EF843
:104FD000E0180700000000000010101F1F10100054
:104FE000000000806020202020A0E0E020000000E1
:104FF0000000C0F03E0F0300000000101C1F17103F
:105000001010101806000000000000FC0404040446
:1050100004000000000000FF00000000000000008D
:105020000000007F404040404000000010E00000D1
:1050300000000000000000000000031C6080000071
:10504000000000000000000000030C708000000061
:105050000404040404FC0000000000000000000040
:1050600000FF00000000000040404040407F000082
:10507000000000000010080C040C081000000000E4
:105080000000000000000000000000000000000020
:105090000000000000000000000000000000000010
:1050A0000000000000000000000000000000808000
:1050B00080808080808080808080000000040408E0
:1050C00008000000000000000000000000000000D8
:1050D00000000000000000000000000000000000D0
:1050E00000000000000000000000000098D84464A8
:1050F0002424FCF80000000F1F18101010081F1FB8
:1051000010180020E0F00000000000000000000087
:10511000FFFF180804040CF8F00000001F0F18101F
:105120001010180F03000000000000000000000035
:10513000000000E0F8180404043C380000000003FC
:105140000F0C1010101008060000000000000000F6
:105150000020E0F0000000E0F81C04040408FFFF59
:10516000000000030F18101010081F0F08000000A7
:10517000000000000000000000000000E0F84844CB
:1051800044444C7870000000030F0C1810101008F5
:1051900004000000000080C0602020E0C000000487
:1051A0000404FFFF040404040000000010101F1F8B
:1051B00010101000000000000000000000000000BF
:1051C0000000000070F88C04048CF874040C00706B
:1051D00076CF8D8D8D89C87870000020E0F00000BA
:1051E0000000000000000000FFFF08040404FCF8B9
:1051F000000000101F1F100000101F1F10000000F3
:10520000000000606000000000000000040404FCD6
:10521000FC000000000000001010101F1F101010F4
:1052200000000000000000000060600000000000BE
:105230000000040404FCFC0000000000C0C08080EA
:10524000C07F3F0000000020E0F0000000000000F0
:1052500000000000FFFF80C0F41C040400000010E8
:105260001F1F1100031F1C1010000000202020E051
:10527000F000000000000000000000FFFF00000040
:10528000000000001010101F1F1010100000000080
:105290000000000000000000000004FCFC0804FC0A
:1052A000FC0804FCFC00101F1F10001F1F10001F33
:1052B0001F100000000000000000000000000004BB
:1052C000FCFC08080404FCF8000000101F1F10007C
:1052D00000101F1F10000000000000000000000070
:1052E000000000E0F0180C04040C18F0E0000003CB
:1052F0000F0C101010100C0F030000000000000035
:105300000000000000000004FCFC080404040CF889
:10531000F0000080FFFF889010101C0F03000000B9
:105320000000000000000000000000E0F81C040481
:105330000408F8FC000000030F1810109088FFFF0D
:1053400080000000000000000000000000000404D5
:1053500004FCFC100804040C0C001010101F1F109B
:10536000101000000000000000000000000000001D
:10537000000000003078CCC48484840C1C00000041
:105380001E1810101011190F06000000000000C0B8
:1053900000000000000000040404FFFF04040400F7
:1053A0000000000000000F1F1010100C0000000093
:1053B000000000000000000000000004FCFE0000EF
:1053C0000004FCFE000000000F1F181010081F0F43
:1053D00008000000000000000000000000000004C1
:1053E0000C3CFCC40000C43C0C0400000000010F95
:1053F0001E0E010000000000000000000000000080
:105400000000043CFCC400E47CFC84807C040000BC
:10541000071F070000071F07000000000000000032
:105420000000000000000004041C7CE4C0341C04E4
:1054300004000010101C1601131F1C18100000009F
:105440000000000000000000000000040C3CFCC450
:1054500000C43C0404000000C080C1370E010000FD
:10546000000000000000000000000000000000003C
:105470001C0404C4F47C1C0400000000101C1F1752
:10548000111010180E0000000000000000F80C04BD
:10549000000000000000001028EF000000000000E5
:1054A00000000000003F604000000000000000001D
:1054B000FF0000000000000000000000FF000000EE
:1054C0000000000000000000FF00000000000000DD
:1054D000040CF80000000000000000000000EF28AD
:1054E000100000000000000040603F0000000000CD
:1054F00000000018060202040810202030080000F6
:10550000000000000000000000000000000000009B
:105510000000000000000000F010101010FF10103C
:105520001010F000000000000F04040404FF040445
:1055300004040F0000004040405F55555575555517
:10554000555F404040000040200F09498979090912
:10555000090F2040000000FE02424ACA4A4ACA4AD5
:105560004A4202FE000000FF40504C4340404F5072
:10557000505C40FF00000000F888888888FF888819
:105580008888F800000000001F080808087F888845
:1055900088889F80F00080828282828282E2A2924A
:1055A0008A8682808000000000000040807F00002A
:1055B000000000000000101010FF1090088888887C
:1055C000FF88888808000444827F01808040432C43
:1055D0001028468180000010101010D030FF30D00D
:1055E000121C1010000010080402010000FF00004F
:1055F00001020408100004040484E43C2724242449
:1056000024E40404040004020100FF090909094913
:10561000897F0000000000FE225A8600FE929292CE
:105620009292FE00000000FF04080700FF402003E4
:105630000C1422414000008040201806800007180A
:105640002040800000000100207028262120202416
:105650003860000101000010129292929292921210
:105660001202FE0000000000003F101010103F006A
:1056700040807F000000000000C08080808080802B
:1056800080FC84808080808080C0C000000000009A
:1056900000FF7F404040404040FF4040404040408D
:1056A00040FF7F000000000000000000000000003C
:1056B000007F7000000000000000000000000000FB
:1056C00000000000000000000000000000FCF800E6
:1056D00000000000000000000000000000000000CA
:1056E0000000FFFE020202020202020202FFFF02AB
:1056F0000202020202020202FF0300000000000098
:1057000000001F1F040404040404040404FFFF0435
:1057100004040404040404041F000000000000004A
:10572000000000000000000000000000007F3F00BB
:105730000000000000000000000000000000000069
:105740000000000000000000000000000000000059
:105750000000000000000000000000F8F8F0F07009
:105760002000000000000000000000000000000019
:105770000000000000000000000000000000000029
:105780000000000000008000000000000000000099
:105790000000000000000000000000FFFFFFFF000D
:1057A00000000000000000000000000000000000F9
:1057B00000008080000000000000000000000000E9
:1057C00000000000000000FFFFFE060606060606B9
:1057D0000606060606060606060606FFFFFFFF0685
:1057E0000606060606060606060606060606060659
:1057F00006FFFFFFFF07020000000000000000009E
:1058000000000000000000FFFFFF0000000000009B
:105810000000000000000000000000FFFFFFFF008C
:105820000000000000000000000000000000000078
:1058300000FFFFFFFF00000000000000000000006C
:1058400000000000000000FFFFFF181818181818CB
:105850001818181818181818181818FFFFFFFF182C
:1058600018181818181818181818181818181818B8
:1058700018FFFFFFFF000000000000000000000014
:105880000000000000000201010000000000000014
:105890000000000000000000000000FFFFFFFF000C
:1058A00000000000000000000000000000000000F8
:1058B00000010100000000000000000000000000E6
:1058C00000000000000000000000000000000000D8
:1058D0000000000000000000000000FFFFFFFF00CC
:1058E00000000000000000000000000000000000B8
:1058F00000000000000000000000000000000000A8
:105900000000000000000000000000000000000097
:1059100000000000000000000000001F1F0F0F002B
:105920000000000000000000000000000000000077
:105930000000000000000000000000000000010264
:1059400002030405060708090A0B0C0D0E0F1010C0
:10595000000000000000000001020304060708091F
:105960000000000001020304885900080000002024
:10597000300000006C010008B85900083000002019
:10598000C00D0000880100080000000000000000B9
:105990000000000000000000000000000000000007
:1059A00000000000000000000100000010000000E6
:0859B000000000000024F400D7
:0400000508000131BD
:00000001FF
